:100000000C942A000C943F000C943F000C943F0089
:100010000C943F000C943F000C943F000C943F0064
:100020000C943F000C943F000C943F000C943F0054
:100030000C943F000C943F000C943F000C943F0044
:100040000C943F000C943F000C943F000C943F0034
:100050000C943F0011241FBECFE5D4E0DEBFCDBF1E
:1000600010E0A0E6B0E0E2EBF4E002C005900D92F3
:10007000AC36B107D9F70E943E010C9457020C949C
:1000800000009C01207F33272C5F28BBE9EFF0E0C4
:100090003197F1F700C0000098B3945098BB829557
:1000A000807F8C5F88BB89EF90E00197F1F700C0FB
:1000B000000088B3845088BB089582E090E00E94DD
:1000C000410088E290E00E9441008CE090E00E94B4
:1000D000410086E090E00E94410008959C01207F4D
:1000E00033272B5F28BBE9EFF0E03197F1F700C031
:1000F000000028B3245028BB82959295907F9827C2
:10010000807F98278B5F88BB89EF90E00197F1F79C
:1001100000C0000088B3845088BB089580E690E05A
:100120000E94410084E090E00E946E008EE090E02A
:100130000E946E0081E190E00E946E0081E190E0FB
:100140000E946E0081E190E00E946E008FE190E0DD
:100150000E946E0082E090E00E946E00089588E5A3
:1001600090E00E94410084E090E00E946E008EE0EA
:1001700090E00E946E0081E190E00E946E0081E1BB
:1001800090E00E946E0081E190E00E946E008FE19D
:1001900090E00E946E0084E090E00E946E0008955E
:1001A00080E590E00E94410084E090E00E946E00B3
:1001B0008EE090E00E946E0081E190E00E946E006F
:1001C00081E190E00E946E0081E190E00E946E006B
:1001D0008FE190E00E946E0088E090E00E946E0047
:1001E0000895CF93DF93EC018881882339F021961D
:1001F00090E00E946E0089918111FACFDF91CF913A
:1002000008950F931F93CF93DF93EC01009761F54F
:1002100080E390E00E946E0084E090E00E94410044
:1002200028C09E01ADECBCEC0E944B028C011695DF
:10023000079516950795169507959801220F331F78
:10024000C801880F991F880F991F880F991F820F67
:10025000931F9E01281B390BC901C0960E946E0096
:10026000E8012097F1F605C084E090E00E9441008B
:10027000D8CFDF91CF911F910F910895CF93DF9346
:10028000CDB7DEB72A970FB6F894DEBF0FBECDBF4D
:100290008FEF87BB0E945D000E94D0000E94AF00DC
:1002A0000E948E00A12CB12C212C312C2B823C825F
:1002B0002D823E822F82388629823A820F2EFAE0E2
:1002C0004F2E512CF02DE5C0E2E0AE16B10409F03E
:1002D000C8C0F4E08F16910409F4D8C0CB80DC804C
:1002E000C2C080E890E00E94410080E690E00E9459
:1002F000F10001151105D9F5E114F104C1F58FE8FC
:1003000090E00E94410082E090E00E946E0083EF46
:1003100091E00197F1F700C000008FE890E00E94A3
:10032000410083E090E00E946E00E3EFF1E031973E
:10033000F1F700C0000083EF91E00197F1F700C0F2
:1003400000008FE890E00E94410084E090E00E946D
:100350006E00E3EFF1E03197F1F700C000008FE8A5
:1003600090E00E94410080E290E00E946E0082ECEA
:1003700090E00E944100C5010E94010181EE94E0DD
:100380000197F1F700C0000083EC90E00E9441006B
:10039000C4010E940101E1EEF4E03197F1F700C0E1
:1003A000000085EC90E00E944100C6010E9401011E
:1003B00081EE94E00197F1F700C0000086EC90E038
:1003C0000E944100C3010E940101E1EEF4E0319777
:1003D000F1F700C0000088EC90E00E944100C801E5
:1003E0000E94010181EE94E00197F1F700C0000046
:1003F00089EC90E00E944100C7010E940101E3EFF7
:10040000F1E03197F1F700C0000089859A850197E6
:100410009A878987892B09F064CF9FEFE91AF90A37
:10042000EAE0EE16F10419F05A8649865ACF0F5FBA
:100430001F4F0630110519F0E980FA80F5CFFFEF64
:100440006F1A7F0A8AE06816710419F00F81188507
:10045000F3CF9FEFC91AD90AE6E0CE16D10419F4FA
:1004600005C0CB80DC806D807E80F0CFFFEF8F1ADF
:100470009F0A8AE08816910409F026CF9FEFA91AF7
:10048000B90AE3E0AE16B1041CF403C0510101C087
:100490005101410119CFA29FB001B39FC001A39F99
:1004A00001D0B29F700D811D1124911D0895F89403
:0204B000FFCF7C
:0C04B200414C41524D20434C4F434B0045
:00000001FF
